:100000000C945D000C9485000C9485000C94850084
:100010000C9485000C9485000C9485000C9485004C
:100020000C9485000C9485000C9485000C9485003C
:100030000C9485000C9485000C9485000C9485002C
:100040000C9473020C9485000C9485000C9485002C
:100050000C9485000C9485000C9485000C9485000C
:100060000C9485000C94850000000008000201003B
:100070000003040700000000000000000000000072
:10008000250028002B0000000000240027002A0083
:10009000040404040404040402020202020203032E
:1000A0000303030301020408102040800102040836
:1000B0001020010204081020E10311241FBECFEF1D
:1000C000D8E0DEBFCDBF11E0A0E0B1E0EEE5F8E0A2
:1000D00002C005900D92A834B107D9F721E0A8E439
:1000E000B1E001C01D92AD36B207E1F710E0CDE5F9
:1000F000D0E004C02197FE010E942204CC35D10734
:10010000C9F70E94BD020C942D040C94000090E0ED
:10011000FC01EC55FF4F2491FC01E057FF4F849107
:10012000882399F090E0880F991FFC01EA57FF4F50
:10013000A591B491FC01E458FF4F859194918FB73C
:10014000F894EC91E22BEC938FBF0895CF92DF925D
:10015000EF92FF920F931F93CF93DF936C017A017D
:100160008B01C0E0D0E0CE15DF0589F0D8016D919C
:100170008D01D601ED91FC910190F081E02DC60139
:100180000995892B11F47E0102C02196ECCFC7019D
:10019000DF91CF911F910F91FF90EF90DF90CF9063
:1001A000089590E0FC01E859FF4F3491FC01EC55B3
:1001B000FF4F2491FC01E057FF4FE491EE2309F437
:1001C0003BC0332339F1333091F038F43130A9F0AA
:1001D000323001F584B58F7D12C0373091F0383060
:1001E000A1F03430B9F4809180008F7D03C08091FC
:1001F00080008F77809380000DC084B58F7784BD99
:1002000009C08091B0008F7703C08091B0008F7DCE
:100210008093B000F0E0EE0FFF1FE458FF4FA59170
:10022000B4918FB7F894EC91611103C020952E23FF
:1002300001C02E2B2C938FBF0895CF93DF93EC0139
:1002400060E08E810E94D10061E08E810E94D10029
:1002500060E08E810E94D1008BE891E00197F1F778
:10026000DF91CF910895CF92DF92EF92FF920F939B
:100270001F93CF93DF937C016C0187E0C80ED11CE4
:10028000C0E0D0E0062F10E0B8010C2E02C075953A
:1002900067950A94E2F76170F60181916F010E94FF
:1002A000D1002196C430D10579F7C701DF91CF91F4
:1002B0001F910F91FF90EF90DF90CF900C941D0154
:1002C000CF92DF92EF92FF920F931F93CF93DF9322
:1002D000EC01F62E642F8C810E94D1008D818F3F1E
:1002E00019F060E00E94D1008F850F2D10E084FF8F
:1002F00025C06E0187E0C80ED11CE12CF12CB8019D
:100300000E2C02C0759567950A94E2F76170F601AC
:1003100081916F010E94D100FFEFEF1AFF0A88E080
:10032000E816F10461F7CE01DF91CF911F910F9193
:10033000FF90EF90DF90CF900C941D01B80184E006
:10034000759567958A95E1F7CE010E9433016F2D6F
:10035000CE01DF91CF911F910F91FF90EF90DF9031
:10036000CF900C94330141E00E94600181E090E065
:10037000089540E00C946001EF92FF920F931F9359
:10038000CF93DF93EC01623018F08F8588608F8700
:100390006B8B1C8A80E48D8B80E18E8B80E58F8B4C
:1003A0008C810E9487008D818F3F11F00E94870011
:1003B0008E810E9487007E0187E0E80EF11C00E03C
:1003C00010E08F8584FD03C084E090E002C088E0E7
:1003D00090E00817190744F4F70181917F010E940A
:1003E00087000F5F1F4FEDCF8BE39DE00197F1F783
:1003F00060E08C810E94D10060E08E810E94D1007B
:100400008D818F3F19F060E00E94D1006F8564FDFF
:100410001DC063E0CE010E9433010BE416E4C80165
:100420000197F1F763E0CE010E943301C801019703
:10043000F1F763E0CE010E94330183E592E001977A
:10044000F1F762E0CE010E94330116C06062CE0176
:100450000E94B9018BE496E40197F1F76F85606221
:10046000CE010E94B90183E592E00197F1F76F8513
:100470006062CE010E94B9016F856062CE010E9468
:10048000B90184E0888B6CE0CE010E94B90161E083
:10049000CE010E94B9018BE39FE10197F1F782E061
:1004A000898B66E0CE01DF91CF911F910F91FF9074
:1004B000EF900C94B901089580E090E008950097C2
:1004C00069F0FC0101900020E9F73197AF01481B6A
:1004D000590BBC0185E591E00C94A60080E090E00A
:1004E00008950E9428041F920F920FB60F921124B4
:1004F0002F933F938F939F93AF93BF9380914D0121
:1005000090914E01A0914F01B091500130914C015A
:1005100023E0230F2D3720F40196A11DB11D05C046
:1005200026E8230F0296A11DB11D20934C01809354
:100530004D0190934E01A0934F01B09350018091D3
:10054000480190914901A0914A01B0914B01019657
:10055000A11DB11D8093480190934901A0934A01C8
:10056000B0934B01BF91AF919F918F913F912F918C
:100570000F900FBE0F901F901895CF93DF93CDB7BC
:10058000DEB7A1970FB6F894DEBF0FBECDBF78944B
:1005900084B5826084BD84B5816084BD85B5826088
:1005A00085BD85B5816085BD80916E008160809339
:1005B0006E001092810080918100826080938100A2
:1005C00080918100816080938100809180008160B2
:1005D000809380008091B10084608093B10080910D
:1005E000B00081608093B00080917A008460809335
:1005F0007A0080917A00826080937A0080917A00FC
:10060000816080937A0080917A00806880937A007C
:100610001092C10062E085E591E00E94BC01E1E03A
:10062000809168018111E0E0E195F0E0EB5AFE4F26
:100630006489606885E591E00E94B9018CE091E0F1
:100640000E945F0298EEC92E93E0D92EE12CF12C86
:100650002AE0422E512C612C712C30E0A32E30E088
:10066000B32E80E4982EE0916801E23010F4E1505E
:1006700001C0E1E0F0E0EB5AFE4F6489675F60681B
:1006800085E591E00E94B9012FB7F89460914D0182
:1006900070914E0180914F01909150012FBFA701A1
:1006A00096010E94000419A28E010F5D1F4FCA011E
:1006B000B901A30192010E940004605DF8016293F8
:1006C0008F01211531054105510589F7CF010E94A0
:1006D0005F02E0916801E23010F4E15001C0E1E016
:1006E000F0E0EB5AFE4F6489606885E591E00E9476
:1006F000B90190927C0080917A00806480937A00A6
:1007000080917A0086FDFCCF80917800209179005D
:1007100090E0922B9093520180935101893EF3E037
:100720009F078CF4823391058CF08A3F91058CF001
:10073000823C21E0920784F08A38E2E09E077CF058
:10074000823593407CF085E090E00EC080E090E040
:100750000BC081E090E008C082E090E005C083E03B
:1007600090E002C084E090E09093540180935301A4
:100770008330910579F034F48130910571F002975E
:1007800079F005C08430910571F0059779F08DE11D
:1007900091E00EC084E291E00BC08CE291E008C0D1
:1007A00083E391E005C08AE391E002C081E491E037
:1007B0000E945F02A114B10409F455CF0E94000009
:1007C00050CFE5E5F1E01382128284E091E091835D
:1007D000808388E084838FEF858389E0868384E04B
:1007E000878385E0808786E0818787E0828713861C
:1007F000148615861686178661E0CF010C94BC011D
:10080000A1E21A2EAA1BBB1BFD010DC0AA1FBB1F14
:10081000EE1FFF1FA217B307E407F50720F0A21B86
:10082000B30BE40BF50B661F771F881F991F1A94F3
:1008300069F760957095809590959B01AC01BD011D
:10084000CF010895EE0FFF1F0590F491E02D09945C
:0E08500081E090E0F8940C942D04F894FFCF12
:10085E0000000000B301A6005C025B0250757368D5
:10086E002074686520627574746F6E730052494708
:10087E00485420004C45465420202000555020203E
:10088E00202000444F574E20200053454C454354E2
:08089E00004E4F4E45202000E2
:107E0000112484B714BE81FFF0D085E080938100F7
:107E100082E08093C00088E18093C10086E0809377
:107E2000C20080E18093C4008EE0C9D0259A86E02C
:107E300020E33CEF91E0309385002093840096BBD3
:107E4000B09BFECF1D9AA8958150A9F7CC24DD24C4
:107E500088248394B5E0AB2EA1E19A2EF3E0BF2EE7
:107E6000A2D0813461F49FD0082FAFD0023811F036
:107E7000013811F484E001C083E08DD089C08234E0
:107E800011F484E103C0853419F485E0A6D080C0E4
:107E9000853579F488D0E82EFF2485D0082F10E0AE
:107EA000102F00270E291F29000F111F8ED06801E7
:107EB0006FC0863521F484E090D080E0DECF843638
:107EC00009F040C070D06FD0082F6DD080E0C81688
:107ED00080E7D80618F4F601B7BEE895C0E0D1E017
:107EE00062D089930C17E1F7F0E0CF16F0E7DF06D8
:107EF00018F0F601B7BEE89568D007B600FCFDCFD4
:107F0000A601A0E0B1E02C9130E011968C91119780
:107F100090E0982F8827822B932B1296FA010C0160
:107F200087BEE89511244E5F5F4FF1E0A038BF0790
:107F300051F7F601A7BEE89507B600FCFDCF97BE46
:107F4000E89526C08437B1F42ED02DD0F82E2BD052
:107F50003CD0F601EF2C8F010F5F1F4F84911BD097
:107F6000EA94F801C1F70894C11CD11CFA94CF0C13
:107F7000D11C0EC0853739F428D08EE10CD085E9AC
:107F80000AD08FE07ACF813511F488E018D01DD067
:107F900080E101D065CF982F8091C00085FFFCCF94
:107FA0009093C60008958091C00087FFFCCF809118
:107FB000C00084FD01C0A8958091C6000895E0E648
:107FC000F0E098E1908380830895EDDF803219F02E
:107FD00088E0F5DFFFCF84E1DECF1F93182FE3DFCA
:107FE0001150E9F7F2DF1F91089580E0E8DFEE27F6
:047FF000FF270994CA
:027FFE00040479
:0400000300007E007B
:00000001FF
